:020000043000CA
:10000000FFFFFFFFFFFFFFFFFFFFFFFFFFFFFFFF00
:10001000FFFFFFFFFFFFFFFFFFFFFFFFFFFFFFFFF0
:10002000FFFFFFFFFFFFFFFFFFFFFFFFFFFFFFFFE0
:10003000FFFFFFFFFFFFFFFFFFFFFFFFFFFFFFFFD0
:100400004643464200040156000000000103030079
:1004100000000000000000000000000000000000DC
:1004200000000000000000000000000000000000CC
:1004300000000000000000000000000000000000BC
:100440001000000001040700000000000000000090
:100450000000000400000000000000000000000098
:10046000000000000000000000000000000000008C
:10047000000000000000000000000000000000007C
:10048000EB04180A001E04320426000000000000DD
:10049000000000000000000000000000000000005C
:1004A000000000000000000000000000000000004C
:1004B000000000000000000000000000000000003C
:1004C000000000000000000000000000000000002C
:1004D000000000000000000000000000000000001C
:1004E000000000000000000000000000000000000C
:1004F00000000000000000000000000000000000FC
:1005000000000000000000000000000000000000EB
:1005100000000000000000000000000000000000DB
:1005200000000000000000000000000000000000CB
:1005300000000000000000000000000000000000BB
:1005400000000000000000000000000000000000AB
:10055000000000000000000000000000000000009B
:10056000000000000000000000000000000000008B
:10057000000000000000000000000000000000007B
:10058000000000000000000000000000000000006B
:10059000000000000000000000000000000000005B
:1005A000000000000000000000000000000000004B
:1005B000000000000000000000000000000000003B
:1005C0000001000000100000010000000000000019
:1005D0000000040000000000000000000000000017
:1005E000000000000000000000000000000000000B
:1005F00000000000000000000000000000000000FB
:10060000FFFFFFFFFFFFFFFFFFFFFFFFFFFFFFFFFA
:10061000FFFFFFFFFFFFFFFFFFFFFFFFFFFFFFFFEA
:10100000D1002041C1240030000000003010003029
:101010002010003000100030000000000000000030
:10102000000000300000100000000000FFFFFFFF84
:10103000D2039841CC02EC0440CC0200000006022E
:10104000400E801000000000400E801400000000E0
:10105000400E801800000000400E801C00000000C0
:10106000400E802000000000400E802400000000A0
:10107000400E802800000000400E802C0000000080
:10108000400E803000000000400E80340000000060
:10109000400E803800000000400E803C0000000040
:1010A000400E804000000000400E80440000000020
:1010B000400E804800000000400E804C0000000000
:1010C000400E805000000000400E805400000000E0
:1010D000400E805800000000400E805C00000000C0
:1010E000400E806000000000400E806400000000A0
:1010F000400E806800000000400E806C0000000080
:10110000400E807000000000400E8074000000005F
:10111000400E807800000000400E807C000000003F
:10112000400E808000000000400E8084000000001F
:10113000400E808800000000400E808C00000000FF
:10114000400E809000000000400E809400000000DF
:10115000400E809800000000400E809C00000000BF
:10116000400E80A000000000400E80A4000000009F
:10117000400E80A800000000400E80AC000000106F
:10118000400E825400000008400E82580000000803
:10119000400E825C00000008400E826000000008E3
:1011A000400E826400000008400E826800000008C3
:1011B000400E826C00000008400E827000000008A3
:1011C000400E827400000008400E82780000000883
:1011D000400E827C00000008400E82800000000863
:1011E000400E828400000008400E82880000000843
:1011F000400E828C00000008400E82900000000823
:10120000400E829400000008400E82980000000802
:10121000400E829C00000008400E82A000000008E2
:10122000400E82A400000008400E82A800000008C2
:10123000400E82AC00000008400E82B000000008A2
:10124000400E82B400000008400E82B80000000882
:10125000400E82BC00000008400E82C00000000862
:10126000400E82C400000008400E82C80000000842
:10127000400E82CC00000008400E82D00000000822
:10128000400E82D400000008400E82D80000000802
:10129000400E82DC00000008400E82E000000008E2
:1012A000400E82E400000008400E82E800000008C2
:1012B000400E82EC00000008400E82F000000008A2
:1012C000400D400010000004400D40080000008167
:1012D000400D400C00000081400D40108000001BBC
:1012E000400D404000000F31400D404400772A225D
:1012F000400D404800010A0D400D404C21210408DA
:10130000400D409080000000400D4094000000021D
:10131000400D409800000000400D409CA55A000F71
:10132000C0000400C0000400C0000400C0000400AD
:10133000C0000400CC001404400D403C0000000339
:10134000400D409CA55A000CC0000400C0000400E1
:10135000C0000400C0000400C0000400CC0014045D
:10136000400D403C00000003400D409CA55A000C7D
:10137000C0000400C0000400C0000400C00004005D
:10138000C0000400CC001C04400D403C00000003E1
:10139000400D40A000000033400D409CA55A000ABB
:1013A000C0000400C0000400C0000400C00004002D
:1013B000C0000400CC001404400D403C00000003B9
:1013C000400D404C21210409FFFFFFFFFFFFFFFFFD
:1013D000FFFFFFFFFFFFFFFFFFFFFFFFFFFFFFFF1D
:1013E000FFFFFFFFFFFFFFFFFFFFFFFFFFFFFFFF0D
:1013F000FFFFFFFFFFFFFFFFFFFFFFFFFFFFFFFFFD
:10140000FFFFFFFFFFFFFFFFFFFFFFFFFFFFFFFFEC
:1020000000002C20C124003095250030CF23023061
:1020100099250030052702309D2500300000000082
:10202000000000000000000000000000B1250030AA
:10203000A125003000000000E12500308D3E013078
:10204000DF180230E7180230EF180230F7180230BC
:10205000FF180230071902300F1902301719023029
:102060001F190230271902302F1902303719023098
:102070003F190230471902304F1902305719023008
:102080005F190230671902306F1902307719023078
:10209000916E0230A56E0230B96E0230CD6E023004
:1020A000E16E0230F56E0230096F02307F190230A6
:1020B000871902308F190230971902301D6F0230D4
:1020C0009F190230A7190230AF190230B719023038
:1020D000BF190230C7190230CF190230D7190230A8
:1020E000DF190230E7190230EF190230F719023018
:1020F000FF190230071A02300F1A0230171A023085
:102100001F1A0230271A02302F1A0230371A0230F3
:102110003F1A0230471A02304F1A023019C90130F3
:10212000571A02305F1A0230671A02306F1A0230F3
:10213000771A02307F1A0230871A02308F1A023063
:10214000971A02309F1A0230A71A0230AF1A0230D3
:10215000B71A0230BF1A0230C71A0230CF1A023043
:10216000D71A0230DF1A0230E71A0230EF1A0230B3
:10217000F71A0230FF1A0230071B02300F1B023021
:10218000171B02301F1B0230271B02302F1B02308F
:10219000371B02303F1B0230471B02304F1B0230FF
:1021A000571B02305F1B0230671B02306F1B02306F
:1021B000771B02307F1B0230871B02308F1B0230DF
:1021C000971B02309F1B0230A71B0230AF1B02304F
:1021D000B71B0230BF1B0230C71B0230CF1B0230BF
:1021E000D71B0230DF1B0230E71B0230EF1B02302F
:1021F000F71B0230FF1B0230071C02300F1C02309D
:10220000171C02301F1C0230271C02302F1C02300A
:10221000371C02303F1C0230471C02304F1C02307A
:10222000571C02305F1C0230671C02306F1C0230EA
:10223000771C02307F1C0230871C02308F1C02305A
:10224000971C02309F1C0230A71C0230AF1C0230CA
:10225000B71C0230BF1C0230C71C02307D82003028
:1022600061820030CF1C0230D71C0230DF1C0230EC
:10227000E71C0230EF1C0230F71C0230FF1C02305A
:10228000071D02300F1D0230171D02301F1D0230C6
:10229000271D02302F1D0230371D02303F1D023036
:1022A000471D02304F1D0230571D02305F1D0230A6
:1022B000671D02306F1D0230771D02307F1D023016
:1022C000871D02308F1D0230971D02309F1D023086
:1022D000A71D0230AF1D0230B71D0230BF1D0230F6
:1022E000C71D0230CF1D0230D71D0230DF1D023066
:1022F000E71D0230EF1D0230F71D0230FF1D0230D6
:10230000071E02300F1E0230171E02301F1E023041
:10231000271E02302F1E0230371E02303F1E0230B1
:10232000471E02304F1E0230571E02305F1E023021
:10233000671E02306F1E0230771E02307F1E023091
:10234000871E02308F1E0230971E02309F1E023001
:10235000A71E0230AF1E0230B71E0230BF1E023071
:10236000C71E0230CF1E0230D71E0230DF1E0230E1
:10237000E71E0230EF1E0230F71E0230FF1E023051
:10238000071F02300F1F0230171F02301F1F0230BD
:10239000271F02302F1F0230371F02303F1F02302D
:1023A000471F02304F1F0230E817043000000020A2
:1023B00090020000D8FF0330000000001018000059
:1023C000E81704300000008000000000E817043027
:1023D0000000008100000000E81704300000242005
:1023E00000000000E8170430000034200000000066
:1023F00000100020803204001018000000000000CF
:102400000000008000000000000000810040380053
:102410000000242000000000000034200000000024
:1024200010B40B464FF0000C05E050F8044B43F895
:10243000044B0CF1040C9445F7D30D4B5B6913F47A
:10244000803F11D0002A0FDD01F01F031A44BFF3B3
:102450004F8F074BC3F868122031203A002AF8DC6E
:10246000BFF34F8FBFF36F8F5DF8044B704700BF12
:1024700000ED00E010B40346002203E0002443F81E
:10248000044B04328A42F9D30C4B5B6913F4803F4E
:1024900011D000290FDD00F01F031944BFF34F8F47
:1024A000064BC3F86802203020390029F8DCBFF35E
:1024B0004F8FBFF36F8F5DF8044B704700ED00E066
:1024C00010B586B072B62E4C84F3088884F3098860
:1024D00004F062F90594EFF3148313F0020F16D0A1
:1024E000EFF309830493059B049A9B1A0393254BEE
:1024F0000293029B039A9B1A0193BFF34F8FBFF382
:102500006F8F0599013902980138002208E0EFF336
:102510000883E7E711F80139DBB200F8013901322D
:10252000039B9342F6D8EFF3148313F0020F08D005
:10253000019B83F30988BFF36F8F17F0D5FE124B11
:102540000BE0019B83F30888F5E703F10C049A681C
:1025500059681868FFF764FF23460C4A9342F4D386
:1025600006E01C46596854F8080BFFF783FF234622
:10257000074A9342F5D362B607F0D2F9FEE700BFEF
:1025800000002C2000000620A8230030F02300309B
:1025900020240030FEE7FEE7FEE7FEE7FEE7FEE769
:1025A000FEE7FEE7FEE7FEE7FFFFFFFFFFFFFFFF9F
:1025B000074B19680868B0E8F04F80F30988BFF34B
:1025C0006F8F4FF0000080F311887047AFF30080E9
:1025D000543E042000BF00BFFFFFFFFFFFFFFFFFCF
:1025E000EFF30980BFF36F8F154B1A681EF0100FC1
:1025F00008BF20ED108A20E9F04F10602DE9090096
:102600004FF0200080F31188BFF34F8FBFF36F8F1F
:1026100012F00AFB4FF0000080F3118809BC196822
:102620000868B0E8F04F1EF0100F08BFB0EC108A39
:1026300080F30988BFF36F8F704700BFAFF300804E
:10264000543E042000BF00BFFFFFFFFFFFFFFFFF5E
:1026500001F0FF01102A2BDB10F0070F08D010F853
:10266000013B013A8B422DD010F0070F42B3F6D157
:10267000F0B441EA012141EA014122F007047FF070
:1026800000070023F0E80256083C85EA010586EAC7
:10269000010685FA47F5A3FA87F586FA47F6A5FA03
:1026A00087F68EB9EED1F0BC01F0FF0102F007020F
:1026B00032B110F8013B013A83EA010313B1F8D1BA
:1026C0000020704701387047002D06BF354603389B
:1026D000073815F0010F07D1013015F4807F02BFD4
:1026E000013015F4C03F0130F0BC0138704700BF25
:1026F00080B483B000AF7860396079684FF0000231
:102700004FF00003C1E9002379684FF000024FF059
:102710000003C1E902233B68002B30D1796836A35E
:10272000D3E90023C1E90423796835A3D3E9002361
:10273000C1E90623796834A3D3E90023C1E908235A
:10274000796833A3D3E90023C1E90A23796832A366
:10275000D3E90023C1E90C23796831A3D3E900232D
:10276000C1E90E23796830A3D3E90023C1E910231E
:1027700079682FA3D3E90023C1E912232FE07968F8
:102780002DA3D3E90023C1E9042379682CA3D3E95D
:102790000023C1E9062379682BA3D3E90023C1E90B
:1027A000082379682AA3D3E90023C1E90A237968B9
:1027B00029A3D3E90023C1E90C23796828A3D3E92D
:1027C0000023C1E90E23796827A3D3E90023C1E9D7
:1027D0001023796826A3D3E90023C1E912237B687B
:1027E0003A68C3F8D020002318460C37BD465DF880
:1027F000047B7047AFF3008008C9BCF367E6096A41
:102800003BA7CA8485AE67BB2BF894FE72F36E3C7F
:10281000F1361D5F3AF54FA5D182E6AD7F520E51DC
:102820001F6C3E2B8C68059B6BBD41FBABD9831F96
:1028300079217E1319CDE05BD89E05C15D9DBBCB90
:1028400007D57C362A299A6217DD70305A015991D2
:1028500039590EF7D8EC2F15310BC0FF67263367B7
:1028600011155868874AB48EA78FF9640D2E0CDBBA
:10287000A44FFABE1D48B54780B58CB000AF0346E3
:10288000FB710023FB6297F90730042B0AD097F9FC
:102890000730052B06D0364B364A40F26751364892
:1028A00000F00AFB97F90730042B01D1022300E066
:1028B00003230021184623F0C9F8B862BB6A5B0EF7
:1028C00003F007037B62BB6A03F07F03BB6297F9E7
:1028D0000730042B01D1022300E0032330211846E6
:1028E00023F0B4F807EE900AB8EE677B87ED067B1D
:1028F00097F90730042B01D1022300E003232021A4
:10290000184623F0A3F807EE900AB8EE677B87ED30
:10291000047BBB6A07EE903AB8EE676B97ED044B09
:1029200097ED065B84EE057B36EE077B9FED0E6B25
:1029300027EE065B01227B6A02FA03F307EE903A68
:10294000B8EE676B85EE067B87ED027B97ED027B29
:10295000FCEEC77B17EE903AFB62FB6A18463037F5
:10296000BD4680BDAFF300800000000060E376410B
:10297000BCEC03305CED0330ECEB033080B485B08D
:1029800000AF786039600023FB7312E0FB7B0E4AD6
:1029900052F833307A689A4208D1FB7B0A4ADB004E
:1029A00013445A683B681A60002306E0FB7B01333E
:1029B000FB73FB7B062BE9D9042318461437BD466D
:1029C0005DF8047B704700BF9484023080B584B00A
:1029D00000AF78600B46FB70FB78072B05D9334BB3
:1029E000334A8521334800F067FA0023FB607B6897
:1029F0005B68BB60FA78B96813469B0013449B0080
:102A00000B440C331B7883F00103DBB2002B47D05F
:102A1000BB681B68F978002218461BF08EFCBB6867
:102A20001B68F978012218461BF039FCBB681B684B
:102A3000FA78114618461BF064FCFA78B968134618
:102A40009B0013449B000B440E3301221A7000BFFD
:102A5000FA78B96813469B0013449B000B440E336D
:102A60001B78DBB2002BF3D1F978FA78B8680B4603
:102A70009B000B449B00034414331968B868134649
:102A80009B0013449B00034410331960FA78B96823
:102A900013469B0013449B000B440C3301221A7015
:102AA000FB6818461037BD4680BD00BFCC8402309D
:102AB00000850230EC84023080B584B000AF7860CD
:102AC0000B46FB70FB78072B05D9184B184AA2213F
:102AD000184800F0F1F97B685B68FB60FA78F968E8
:102AE00013469B0013449B000B440C331B78002BB4
:102AF00017D0FB681B68F978002218461BF0CFFB43
:102B0000FB681B68FA78114618461BF0FAFBFA7846
:102B1000F96813469B0013449B000B440C330022BE
:102B20001A70002318461037BD4680BDCC84023091
:102B30001C850230EC84023080B58AB000AFF860AA
:102B40000B467A60FB72FB7A072B05D91F4B204A94
:102B5000B221204800F0B0F907F1140300221A60F6
:102B60005A60FB685B687B627B6A1B683B627B68C0
:102B7000DB6807F1100211461846FFF7FFFEF86107
:102B8000FB69002B01D0FB691CE07B689A887B689D
:102B9000DB88F97A386A1BF032FB7B681A887B681D
:102BA0005B88F97A386A1BF047FB7B681B89BB821C
:102BB0003B69BB6107F11402FB7A1946386A15F0CC
:102BC000A3FE002318462837BD4680BDCC840230C2
:102BD00038850230EC84023080B586B000AFF860F2
:102BE0000B467A60FB72FB7A072B05D9124B134A0E
:102BF000CF21134800F060F9FB685B687B617B685C
:102C000000221A807B6800225A807B691A897B68BF
:102C10009A807B69DA887B68DA807B691B895B0034
:102C20009AB27B681A817B68064ADA6000231846EC
:102C30001837BD4680BD00BFCC84023058850230B5
:102C4000EC8402305247313680B586B000AFF86070
:102C50000B467A60FB72FB7A072B05D9224B234A7D
:102C6000DF21234800F028F9FB685B687B617B6902
:102C70001B687A68F97A18461BF0FCFAFA7A7969C7
:102C800013469B0013449B000B4414337A681A606C
:102C9000FA7A796913469B0013449B000B440C336A
:102CA0001B78002B1AD07B691B68FA7A11461846EC
:102CB0001BF027FBFA7A796913469B0013449B00AB
:102CC0000B440E3301221A70FA7A796913469B007D
:102CD00013449B000B440D3301221A700023184645
:102CE0001837BD4680BD00BFCC8402307C850230E1
:102CF000EC84023080B586B000AFF8607A603B604B
:102D00000B46FB72FB7A072B05D9104B104AF421B6
:102D1000104800F0D1F8FB685B687B61FA7A79694A
:102D200013469B0013449B000B4418337A681A60C7
:102D3000FA7A796913469B0013449B000B441C33B9
:102D40003A681A6000BF1837BD4680BDCC84023097
:102D50009C850230EC84023080B58AB000AF786088
:102D6000396000233B627B681B68FB61FB691B6861
:102D7000BB61414A07F1100392E803001860043375
:102D8000198002330A0C1A703B681B683B4A934255
:102D900001D004236BE0FB699B6801209847012068
:102DA00000F072F8FB695B6800209847012000F092
:102DB0006BF8FB695B6801209847322000F064F8EB
:102DC0002F4B1B68FB6007F10C0304221946B869FE
:102DD0001BF075FC38627A7C3B681B7D013BDBB2E3
:102DE0001343DBB27B743B6A002B07D107F110035E
:102DF00007221946B8691BF062FC38623B6A002B57
:102E000021D1002387F8273017E097F827301D4A93
:102E100052F8331097F827301A4ADB0013441B7915
:102E20001A46B8691BF04BFC38623B6A002B09D18B
:102E300097F82730013387F8273097F82730142B7D
:102E4000E3D900E000BF3B6A002B04D10021B86940
:102E50001BF00AFC38623B6A002B07D1782000F097
:102E600013F80121B8691BF0D4FB38623B6A18469D
:102E70002837BD4680BD00BFA4870230D0020005C0
:102E8000AC870230FC86023080B582B000AF78603B
:102E900006E0084B1B6819464FF47A7015F082F96A
:102EA0007B685A1E7A60002BF3D100BF00BF083741
:102EB000BD4680BDFC01002080B586B002AFF86041
:102EC000B9607A603B607B680093BB68FA683968D8
:102ED000024800F063FA00BEFDE700BFB087023091
:102EE00080B584B000AFF860B9601346FB80FB6822
:102EF000002B11D0BB68002B0ED0FB8843F223526D
:102F000093420AD0FB88002B07D1054B1B68002198
:102F1000184622F02FFA00E000BF1037BD4680BDF2
:102F20003823022080B588B000AF78603960002374
:102F30007B617B68002BFCD03B68002BFCD01BF036
:102F4000F3FBF860494BD3F82C21484BD3F83031D0
:102F50009A4216D001237B61444BD3F82C21434B7A
:102F6000D3F828311A44414BD3F83031D31A3F4AB1
:102F7000D2F82821B3FBF2F101FB02F29B1ABB61EC
:102F800001E00023BB61394BD3F82821BB69D31A78
:102F9000013BBB61BA693B689A4205D2F8681BF0F5
:102FA000D4FB4FF0FF335CE000233B611EE03B6944
:102FB0007A681A442D4BD3F82C31591C2B48C0F891
:102FC0002C111178294A13440A4683F83421274BDF
:102FD000D3F82C21254BD3F828319A4203D3234B25
:102FE0000022C3F82C213B6901333B613B683A69FD
:102FF0009A42DCDB0023FB617B69002B27D11B4B52
:10300000D3F82C21194BD3F830319A4208D9174BF9
:10301000D3F82C21154BD3F83031D31ABB6107E01C
:10302000124BD3F82821114BD3F83031D31ABB619E
:103030000E4BD3F8303103F598730C4A1344043324
:10304000BA6919460A4824F0FBF90346FB61F8689F
:103050001BF07BFBFB69002B01D13B6801E04FF0CB
:10306000FF3318462037BD4680BD00BF4019002001
:103070007420002080B588B000AF7860396043F2DA
:103080002153FB823B68BB617B68002BFCD03B6813
:10309000002BFCD0304B1B68002B01D1002357E0E4
:1030A0001BF042FB38612D4BD3F82C212B4BD3F86E
:1030B00030319A4214D0294BD3F82C21274BD3F826
:1030C00028311A44254BD3F83031D31A234AD2F889
:1030D0002821B3FBF2F101FB02F29B1AFB6101E034
:1030E0000023FB611D4BD3F82821FB69D31A013B58
:1030F000FB61FB69002B16D0FA69BB699A4201D9C2
:10310000BB69FB613A68BB69D31A7A681344F969F1
:103110001846FFF707FFF860FB68002B03DDFB682C
:10312000BA69D31ABB6138691BF00FFBBB69002B6E
:1031300006D000F00FF90346FB82FB8A002B03D177
:10314000BB69002BACD100E000BF3A68BB69D31A61
:1031500018462037BD4680BD3C2302204019002080
:1031600080B58EB000AFB9607B600346FB73134639
:10317000BB730023FB8607F1140300221A605A6018
:103180009A60DA607B687B61BB68BB610123BB77B7
:103190000123FB77FB7B87F82230BB7B87F82C3041
:1031A0003D4B7B624FF48063BB62BB7B012B03D141
:1031B00007F114033B6317E0BB7B022B03D143F2FF
:1031C0002153FB8610E0BB7B032B03D143F2215339
:1031D000FB8609E0BB7B042B03D143F22153FB8622
:1031E00002E043F22153FB86FB8E43F221529342CD
:1031F0004CD040F28C720021284824F039FD274B36
:103200004FF40072C3F82821244B254A1A60234B3F
:103210001B6807F124021146184617F069FD0346A2
:10322000FB86FB8E002BFCD1012022F02CF80346FC
:103230001C4A136003220021012021F0BBFF03463A
:10324000194A1360154B1B681849184617F0B0FD52
:103250000346FB86FB8E002BFCD1104A1449134811
:1032600017F040FF0D4B1B681249184617F00CFE73
:103270000346FB86FB8E002BFCD1084A0E490D4805
:1032800017F050FF054B1B680C4A1360FB8E184665
:103290003837BD4680BD00BF741C00204019002097
:1032A00044190020342302203823022074200020F7
:1032B0006BE70130A0200020E12E00303C230220EB
:1032C00080B500AF1D4B1B68002B02D01C4817F0C7
:1032D000A7FD1A4B1B68002B02D01A4817F014FEEA
:1032E000164B1B68002B0DD0144B1B68184624F09E
:1032F0007AF80346002B05D1104B00221A60124BBE
:1033000000221A60114B1B68002B07D00F4B1B6863
:10331000184622F085F80D4B00221A600C4B1B68F2
:10332000002B07D00A4B1B68184622F079F8084B8F
:1033300000221A600023184680BD00BF40190020FB
:1033400074200020A02000203C23022038230220EB
:103350003423022080B582B000AF10E0EFF3058384
:103360007B607B68002B08D111F06AFE0346022BBC
:1033700005D1012011F088F901E0012308E0064B96
:10338000D3F82C21044BD3F830319A42E6D10023F4
:1033900018460837BD4680BD401900200FB480B5DF
:1033A000C4B000AF0023C7F808310023C7F80C31C0
:1033B00007F58873A3F5867300221A600433FC2294
:1033C0000021184624F054FC124B1B68002B16D029
:1033D00007F58E73C7F804313A1D0F4BD7F8041167
:1033E000D7F818011BF042FCC7F80801D7F80821EC
:1033F0003B1D11461846FFF73DFEC7F80C01D7F8F4
:103400000C31184607F58877BD46BDE8804004B00A
:10341000704700BF3C2302203FE8013080B48DB0EC
:1034200000AF0346FB7100237B620023BB62314A7D
:1034300007F1140307CA83E807002E4A07F10803BF
:1034400007CA83E80700FB79012B01D800234BE072
:10345000FB79022B02D0FB79032B03D1FB79023BD2
:10346000FB7112E0FB79062B02D0FB79072B03D10D
:10347000FB79063BFB7108E0FB790A2B02D0FB7954
:103480000B2B02D1FB790A3BFB710023FB6218E096
:10349000FB6A9B0030333B4453F81C3C002B0DD09F
:1034A000BA6A531CBB62FB6A9B0030333B4453F83F
:1034B0001C1C930030333B4443F8281CFB6A013347
:1034C000FB62FB6A022BE3D9FB79BA6A9A4201D20A
:1034D000002309E0FB799B0030333B4453F8283C40
:1034E0003B623B6A7B627B6A18463437BD465DF8B7
:1034F000047B7047F087023080B586B000AF03468A
:10350000B9607A60FB73FB7B1846FFF787FF786131
:103510007B69002B01D1012341E07B691F22C3F8A5
:1035200030217B691B6B43F480427B691A637B69A2
:103530001B6B43F400427B691A637B6900221A60AB
:10354000FB7B0A2B08D0FB7B0B2B05D0FB7B062BD0
:1035500002D0FB7B072B07D17B694FF400225A6313
:103560007B694FF480125A637B68002B16D07B690D
:103570001A690D4B13407A68127802F00F017A68CD
:103580005278120402F4702211437A68927812027F
:1035900002F470620A431A437B691A6100231846D9
:1035A0001837BD4680BD00BFF0F0F0FF80B588B091
:1035B00000AF78600B46FB701346BB70FB785A0077
:1035C000BB781344BB610023BB600023FB607A68B7
:1035D000BB6904339B0013445B6823F01F03FB614A
:1035E000A2E0BB68002B0CD1FB699B687B617A6908
:1035F000524B1340FA69928BC2F30B0292B21343FF
:10360000BB60FB695B68DBB25BB2002B03DA4FF097
:10361000FF33FB600DE0FB69DB69C3F312331A462D
:10362000FB695B68C3F30E439BB2D21AFB68134479
:10363000FB607A68BB6904339B0013445A6879685D
:10364000BB690C339B000B445B689A421CD17A68BF
:10365000BB6904339B00134400225A607A68BB693B
:103660000C339B00134400225A607B689A68BB6944
:103670009B01134401229A607B689A68BB699B0195
:1036800013440022DA600DE07A68BB6904339B00C2
:1036900013445B681B6819467A68BB6904339B0056
:1036A00013445960FB695B68C3F3C033DBB2002B82
:1036B00009D17A68BB6904339B0013445B6823F02B
:1036C0001F03002B14D1BB78DB01DAB2FB78134364
:1036D000DBB23B7400237B747B681B6807F1080234
:1036E000114618461CF00FFD0023BB600023FB6051
:1036F000FB6900225A607B681B691A46FB691A60E5
:103700007B68FA691A617B6893F854300133DAB246
:103710007B6883F854207A68BB6904339B001344A8
:103720005B6823F01F03FB61FB69002B7FF459AF3B
:1037300000BF00BF2037BD4680BD00BF00F0FFFFC7
:1037400080B58CB000AF78607B685B68D3F8AC3133
:103750007B627B6A002B50D0002387F82B3048E037
:1037600097F82B307A6A22FA03F303F00103002B57
:103770003AD07B689A6897F82B305B00DBB29B01EC
:10378000134430333B623B6AFB61FB691B78DB0906
:1037900087F82A3097F82A2097F82B30194678684E
:1037A000FFF704FF97F82A3083F00103DAB297F8A5
:1037B0002B3019467868FFF7F9FE97F82B303B74E9
:1037C000FB69BB600823FB6001237B7497F82B30F7
:1037D000194678681BF07AFE7B681B6807F10802BF
:1037E000114618461CF08FFC97F82B30013387F8F0
:1037F0002B3097F82B30032BB2D97B685B68D3F85A
:10380000BC317B627B685B687A6AC3F8BC217B6AE7
:10381000002B00F0A681002387F829309CE197F85F
:1038200029307A6A22FA03F303F00103002B00F037
:103830008E8197F829300F2B08D997F82930103B43
:1038400087F82B30012387F82A3006E097F82930D3
:1038500087F82B30002387F82A3097F82B30032B7A
:1038600000F2728197F82B305B00DAB297F82A30B9
:103870001344FB760023BB600023FB6097F82B30DA
:10388000002B23D197F82A30012B1FD17B689A682F
:10389000FB7E9B01134493F8383003F00203DBB244
:1038A000002B13D07B689A68FB7E9B0113441B6836
:1038B000C3F34073DBB2002B08D17B689A68FB7EB0
:1038C0009B011A44136843F000531360FB7E7A682F
:1038D00004339B0013445B6823F01F03FB622EE15B
:1038E000002387F82830FB7E7A6804339B0013445A
:1038F0005B6823F01F03FB6222E0FB6A5B68DBB2BC
:103900005BB2002B06DBFB6A5B68C3F3C033DBB240
:10391000002B10D0FB6A5B68DBB25BB2002B13DBC1
:10392000FB6A5B68C3F3C033DBB2002B0CD001230E
:1039300087F8283008E0FB6A1B6823F01F03FB624E
:10394000FB6A002BD9D100E000BF97F82830002B8C
:1039500003D1FB6A002B40F0F980FB7E7A680433C8
:103960009B0013445B6823F01F03FB62E3E0FB6AE8
:103970005B68DBB25BB2002B00DAE0E0BB68002BD7
:103980000AD1FB6A9A68794B1340FA6A928BC2F3A8
:103990000B0292B21343BB60FB6ADB69C3F31233C1
:1039A0001A46FB6A5B68C3F30E439BB2D21AFB68EC
:1039B0001344FB60FB7E7A6804339B0013445A680F
:1039C000FB7E79680C339B000B445B689A421CD1E8
:1039D000FB7E7A6804339B00134400225A60FB7E0E
:1039E0007A680C339B00134400225A607B689A6803
:1039F000FB7E9B01134401229A607B689A68FB7EE0
:103A00009B0113440022DA600DE0FB7E7A680433E8
:103A10009B0013445B681A68FB7E11467A68043386
:103A20009B0013445960FB6A5B68C3F3C033DBB28D
:103A3000002B09D1FB7E7A6804339B0013445B683A
:103A400023F01F03002B16D197F82A30DB01DAB2DE
:103A500097F82B301343DBB23B7400237B747B68F5
:103A60001B6807F10802114618461CF04CFB0023A6
:103A7000BB600023FB60FB6A00225A607B681B6905
:103A80001A46FB6A1A607B68FA6A1A617B6893F8C7
:103A900054300133DAB27B6883F85420FB7E7A68B5
:103AA00004339B0013445B6823F01F03FB62FB6A33
:103AB000002B40D0FB6A5B68DBB25BB2002B3ADACA
:103AC00097F82B2097F82A301B011344012202FAA1
:103AD00003F37B617B685B687A69C3F8B0217B681C
:103AE0005B68D3F8B8217B691340002B23D100BF5A
:103AF0007B685B68D3F8B0217B691340002BF7D15A
:103B00007B685B68D3F8B8217B691340002B12D126
:103B10007B689A68FB7E9B011344FA6A9A607B6813
:103B20009A68FB7E9B0113440022DA607B685B6825
:103B30007A69C3F8B021FB6A002B7FF418AFFB6AE7
:103B4000002B7FF4CDAE02E000BF00E000BF97F88D
:103B50002930013387F8293097F829301F2B7FF659
:103B60005EAE00BF3037BD4680BD00BF00F0FFFF36
:103B700080B592B000AFF8607A603B600B46FB7294
:103B8000FB7A5B0003F01E03FA7AD209D2B2134328
:103B9000BB62FB7A03F00F02FB7ADB0803F0100331
:103BA0001343012202FA03F37B627B6A3B64002326
:103BB000BB633A6843F6FF7313449B0B7B6300239C
:103BC00087F83330012387F832300023FB62FB682B
:103BD000002B01D103239FE1FB689A68BB6A9B011C
:103BE000134493F8383003F00103DBB2002B01D10A
:103BF000012391E1FB6893F85630002B01D001239B
:103C00008AE17B6B002B01D101237B6307F1100359
:103C1000184623F08CFDFB6893F854301A467B6BF2
:103C2000934205D93B69184623F0A1FD022373E1B5
:103C30003B68B3F5804F03D94FF48043FB6301E049
:103C40003B68FB633A68FB6BD31A3B60FB681B69FC
:103C50003B623B6A1B681A46FB681A61FB6893F873
:103C60005430013BDAB2FB6883F85420BB6B002B65
:103C700001D13B6A7B643B6A01221A603B6A0022E5
:103C80005A607A68BB6B13441A463B6A9A603B6A77
:103C90009B6803F58052A24B13403A6AD3603B6A9B
:103CA000DB6803F580523B6A1A613B6A1B6903F5C6
:103CB00080523B6A5A613B6A5B6903F580523B6AFA
:103CC0009A61FB6BC3F30E0399B23A6A536861F3CE
:103CD0001E435360FB6BC3F312013A6AD36961F36D
:103CE0001E33D3613B6A9B68C3F30B0399B23A6AF4
:103CF000938B61F30B0393833A6AD37F6FF3C713FC
:103D0000D3773B68002B04D13A6A536843F40043ED
:103D100053603A6A5368802161F307035360BA6BBA
:103D2000FB6B1344BB63FA68BB6A0C339B00134400
:103D30005B68002B0FD0FA68BB6A0C339B001344FE
:103D40005B683A6A1A60FA68BB6A0C339B001344DA
:103D50003A6A5A6010E0FA68BB6A04339B00134465
:103D60003A6A5A60FA68BB6A0C339B0013443A6A99
:103D70005A60012387F833303B68002B7FF458AF3B
:103D8000FB7A03F00F03002B43D1FB7ADB09DBB294
:103D9000012B3ED1FB7A03F00F03DBB25B00FB7714
:103DA000FB689A68FB7F9B0113443033BB61BB699E
:103DB0007B61FB689A68BB6A9B01134493F83830B7
:103DC00003F00203DBB2002B23D0FB6B002B20D0CF
:103DD0007B69DB881A46FB6B93421AD2FB689A68B0
:103DE000BB6A9B0113441B68C3F30A439BB21A4688
:103DF000FB6BB3FBF2F101FB02F29B1A002B08D123
:103E0000FB689A68BB6A9B011A4413686FF35D7381
:103E1000136097F83330002B35D1FB685B68D3F81B
:103E2000B0217B6A1340002B1FD03B69184623F05A
:103E30009EFC002370E0FB685B68D3F84021FB68C0
:103E40005B6842F48042C3F84021FB685B68D3F8AA
:103E5000B8313B64FB685B68D3F8403103F48043BE
:103E6000002B02D0002387F8323097F83230002B35
:103E7000E1D1FB685B68D3F84021FB685B6822F402
:103E80008042C3F8402197F83330002B04D13A6CBC
:103E90007B6A1340002B3AD1FB689A68BB6A9B018E
:103EA00013447A6C9A60FB689A68BB6A9B0113445E
:103EB0000022DA60BFF34F8F00BFFB685B687A6A4D
:103EC000C3F8B02119E0FB6A0133FB62FB6A154AB3
:103ED000934205D13B69184623F049FC01231BE0BE
:103EE000FB685B68D3F8BC217B6A1340002B0DD1C3
:103EF000FB685B687A6AC3F8B021FB685B68D3F83B
:103F0000B8217B6A1340002BDDD000E000BF3B6985
:103F1000184623F02CFC002318464837BD4680BDC8
:103F200000F0FFFF8096980080B485B000AF786005
:103F30000023FB7315E0FB7B0F4AD35C002B0DD1F4
:103F4000FB7B0D4A0121D1547B68FA7B1A70FB7B05
:103F50005C2202FB03F3094A134406E0FB7B0133B6
:103F6000FB73FB7B002BE6D0002318461437BD46BD
:103F70005DF8047B704700BF9C2302204023022091
:103F800080B58AB000AF0346B9607A60FB73002346
:103F90007B623F4A07F1180392E8030083E80300BD
:103FA000FB7B012B03D9FB7B023B012B01D90623B1
:103FB00069E007F117031846FFF7B6FF78627B6ADE
:103FC000002B01D103235EE0FB7D5B02314A1A44E2
:103FD0007B6ADA60FB7DDB022F4A13443B627B6A1B
:103FE0003A6A9A607B6AFA7B83F85720FB7B023B34
:103FF0009B0028333B4453F8103C1A467B6A5A60B6
:104000007B6A5B68D3F840217B6A5B6842F00202FE
:10401000C3F8402100BF7B6A5B68D3F8403103F0EE
:104020000203002BF7D17B6A5B68D3F82431DBB243
:1040300003F01F03DAB27B6A83F855207B6A93F89A
:104040005530032B01D801231DE07B6ABA681A6042
:104050007B6A5B68D3F8A8217B6A5B6822F0030265
:10406000C3F8A8217B6A5B68D3F8A8217B6A5B68E8
:1040700042F00202C3F8A821786A1AF03FFF7B6879
:104080007A6A1A60002318462837BD4680BD00BFF3
:10409000FC870230001400200010002080B485B09E
:1040A00000AF78607B68BB607B68002B01D1032385
:1040B0002FE00023FB730FE0FB7B5C2202FB03F38A
:1040C000174A1344BA689A4203D1FB7B154A002170
:1040D000D154FB7B0133FB73FB7B002BECD0BB6823
:1040E0005B680022C3F84821BB685B68D3F84021B5
:1040F000BB685B6822F00102C3F84021BB685B68C3
:10410000D3F84021BB685B6842F00202C3F840214B
:10411000002318461437BD465DF8047B704700BF86
:10412000402302209C23022080B58CB000AF786031
:104130000B46FB707B687B62FB7803F00F02FB7819
:10414000DB0803F010031343012202FA03F33B627E
:10415000FB785B00DBB203F01E03DAB2FB78DB090D
:10416000DBB21343FB77002387F82B307B68002BEF
:1041700001D10323EAE007F10C03184623F0D7FA34
:1041800000233B614FF0FF337B61FB7F7A6A04338E
:104190009B0013445B6823F01F03FB6209E0FA6A8B
:1041A000D37F43F08003D377FB6A1B6823F01F03A0
:1041B000FB62FB6A002BF2D1FB7F7A6A04339B001F
:1041C00013445B6823F01F03FB6291E0FB6ADB7F13
:1041D00023F07F03DBB2002B00F08F80FB6A5B686B
:1041E000DBB25BB2002B1ADA7B6A5B68D3F8B411DE
:1041F0007B6A5B683A6A0A43C3F8B42100BF7B6AF2
:104200005B68D3F8B4213B6A1340002BF7D17B6A7B
:104210005B68D3F8B8213B6A1340002BE4D13B69BB
:10422000002B0AD1FB6A9A684A4B1340FA6A928BB8
:10423000C2F30B0292B213433B61FB7F7A6A0433F1
:104240009B0013445A68FB7F796A0C339B000B4434
:104250005B689A420ED1FB7F7A6A04339B00134459
:1042600000225A60FB7F7A6A0C339B0013440022C1
:104270005A600DE0FB7F7A6A04339B0013445B684D
:104280001A68FB7F11467A6A04339B001344596015
:10429000FB6A5B68C3F3C033DBB2002B09D1FB7F41
:1042A0007A6A04339B0013445B6823F01F03002BDE
:1042B00002D1012387F82B30FB6A00225A607B6A07
:1042C0001B691A46FB6A1A607B6AFA6A1A617B6A82
:1042D00093F854300133DAB27B6A83F85420FB7FC1
:1042E0007A6A04339B0013445B6823F01F03FB626C
:1042F000FB6A002B7FF46AAF00E000BFFB6A002B73
:104300000DD17B6A9A68FB7F9B01134401229A605E
:104310007B6A9A68FB7F9B0113440022DA60FB688A
:10432000184623F024FA97F82B30002B0DD0FB7899
:104330003B7600237B767B6A1B6807F110021146EF
:1043400018461BF0E0FE00233B610023184630377F
:10435000BD4680BD00F0FFFF80B58AB000AFF860B9
:104360000B467A60FB72FB683B62012387F82730BB
:10437000FB68002B01D1032336E1FB7A142B00F2FA
:10438000208101A252F823F0DD430030F9430030D0
:10439000154400302D4400304D4400306D44003051
:1043A0008D440030A744003059450030C3450030EB
:1043B000C3450030C3450030C3450030C34500301D
:1043C00061450030A7450030C3450030C34500308B
:1043D000C3450030C3450030354500303B6A5B685B
:1043E000D3F840213B6A5B6842F00102C3F84021E8
:1043F000002387F82730F5E03B6A5B68D3F840215B
:104400003B6A5B6822F00102C3F84021002387F871
:104410002730E7E07B68002B00F0D5807968386AA8
:104420001AF005FE034687F82730CCE07B68002BA6
:1044300000F0CB807B68FB61FB691B781946386A0A
:104440001AF0F7FE034687F82730BEE07B68002BA2
:1044500000F0BD807B68FB61FB691B781946386AF8
:104460001AF062FF034687F82730B0E07B68002B24
:1044700000F0AF807B68FB61FB691B781946386AE6
:104480001AF0C7FF034687F82730A2E07B68002BAD
:1044900000F0A1807B683B613B6901221A80002308
:1044A00087F8273097E07B68002B00F096807B68C8
:1044B000BB61BB691B7803F00F03FB75BB691B78FD
:1044C000DB09BB75FB7D032B00F28780FB7D002B96
:1044D00018D03B6A5A68FB7D013B70339B00134444
:1044E0005B68BA7D002A02D04FF4803200E00122DE
:1044F0001340002B14BF01230023DBB29AB2BB6927
:104500005A8013E03B6A5B68D3F8C031BA7D002A59
:1045100002D04FF4803200E001221340002B14BF80
:1045200001230023DBB29AB2BB695A80002387F8CB
:10453000273052E07B68002B51D07B68FB61FB6920
:104540001B785A063B6A5B6842F08072C3F85421BC
:10455000002387F8273042E0002387F8273041E026
:10456000002387F8263013E097F8263063F07F03A6
:10457000DBB21946386A1AF05CFE97F82630194605
:10458000386A1AF056FE97F82630013387F826303D
:1045900097F82630032BE7D9386A1AF0AFFC0023CE
:1045A00087F827301EE07B68002B1AD07B68FB6100
:1045B0003B6A93F85820FB691A70002387F827306C
:1045C0000FE000BF0EE000BF0CE000BF0AE000BF3C
:1045D00008E000BF06E000BF04E000BF02E000BF4B
:1045E00000E000BF97F8273018462837BD4680BD49
:1045F00090B5A7B002AFF860B9607A600023BB67DE
:1046000000237B67052387F88F30002387F87330FA
:10461000BB685B68B3F1FF3F02D07B68002B02D11F
:1046200097F88F30A0E17B68C7F88830D7F88830DA
:104630009B68C7F88430D7F88430C7F8803007F11A
:1046400073031A460621F86800F058FABB681B7A13
:10465000002B00F01581BB685B68082B03D1BB6899
:104660001B68002B02D197F88F307DE1BB681B6877
:10467000C7F88430D7F88430FB67FB6F5A88D7F8C7
:1046800080305A80FB6F9A88D7F880309A80FB6F11
:10469000DA88D7F88030DA80FB6F5A78D7F8803024
:1046A0005A70FB6F1A78D7F880301A70D7F88030BC
:1046B0001B7803F06003002B23D1D7F880305B78A0
:1046C0000C2B00F2CB80D7F880305B781A46A84BD1
:1046D00053F82230002B00F0C180D7F880305B788F
:1046E0001A46A34B53F8224007F1740307F17802EE
:1046F000D7F88010D7F88800A047034687F88F3096
:10470000ACE0D7F88030DB88002B64D0D7F880305D
:104710001B785BB2002B5EDBD7F88030DB88002B88
:1047200021D0D7F880301B7803F02003002B1AD05B
:1047300000237B66012387F86C30D7F880303B6616
:10474000D7F88030DB88BB6607F160031A46012189
:10475000F86801F027FF034687F88F30BB6E7B6750
:104760007B6EBB6725E0D7F88030DB88002B20D03C
:10477000D7F880301B7803F04003002B19D00023BA
:104780007B65012387F85C30D7F880303B65D7F82C
:104790008030DB88BB6507F150031A461321F868A7
:1047A0001DF04CF8034687F88F30BB6D7B677B6D3F
:1047B000BB6797F88F30002B50D1BA6FD7F8803095
:1047C000DB880021F8681BF005FE034687F88F3070
:1047D00097F88F30C8E0D7F880301B7803F02003BB
:1047E000002B1AD000237B64012387F84C30D7F8C4
:1047F00080303B64D7F88030DB88BB6407F140032E
:104800001A460121F86801F0CDFE034687F88F3083
:10481000BB6C7B677B6CBB6720E0D7F880301B7874
:1048200003F04003002B19D000237B63012387F89A
:104830003C30D7F880303B63D7F88030DB88BB63EF
:1048400007F130031A461321F8681CF0F7FF0346FE
:1048500087F88F30BB6B7B677B6BBB6797F88F20CC
:1048600007F17403019307F1780300930023D7F84D
:104870008010F8681BF046FA034687F88F3071E025
:1048800097F87330032B13D1D7F880305B781A4632
:10489000374B53F8224007F1740307F17802D7F839
:1048A0008010D7F88800A047034687F88F3059E07A
:1048B000BB685B68002B55D0D7F88030DB88002BB5
:1048C00050D0D7F880301B785BB2002B4ADBD7F88A
:1048D00080301B7803F02003002B16D0BB681B68C8
:1048E0007B62002387F82C30D7F880303B62BB68AE
:1048F0005B68BB6207F120031A460121F86801F0EA
:1049000051FE034687F88F301BE0D7F880301B78C4
:1049100003F04003002B14D0BB681B687B610023AD
:104920003B77D7F880303B61BB685B68BB6107F1C0
:1049300010031A461321F8681CF080FF034687F81D
:104940008F3097F88F2007F17403019307F17803F4
:1049500000930123D7F88010F8681BF0D3F90346C1
:1049600087F88F3097F88F3018469437BD4690BD42
:104970000488023080B588B000AF786039601B4B86
:10498000FB603B683B6101233B770023FB76002300
:104990007B778023BB7640233B8307F10C0207F132
:1049A0001803194678681BF04EFD0346FB77FB7F22
:1049B000002B01D0FB7F15E00023BB7607F10C0232
:1049C00007F11803194678681BF03DFD0346FB7795
:1049D000FB7F002B05D0802178681BF093FDFB7FC7
:1049E00000E0002318462037BD4680BDF145003069
:1049F00080B584B000AF03463960FB7107F108034E
:104A0000184622F094FE0023FB601EE02B49FA6852
:104A100013465B019B1A9B000B441B68002B11D0B3
:104A20002649FA6813465B019B1A9B000B447533B9
:104A30001B78FA799A4205D1BB68184622F097FE96
:104A4000012336E0FB680133FB60FB68002BDDD0FF
:104A50000023FB6025E01949FA6813465B019B1AA5
:104A60009B000B441B68002B18D11449FA681346AD
:104A70005B019B1A9B000B447533FA791A70FA6834
:104A800013465B019B1A9B000C4A1A443B681A6050
:104A9000BB68184622F06BFE00230AE0FB68013376
:104AA000FB60FB68002BD6D0BB68184622F05FFE87
:104AB000022318461037BD4680BD00BFCC20002021
:104AC00080B485B000AF03463960FB710623FB73E9
:104AD000FB79BB73BB7B022B02D0BB7B032B04D1C6
:104AE0003B68054A1A600023FB73FB7B18461437AA
:104AF000BD465DF8047B70473888023080B586B0CB
:104B000000AFF8600B467A60FB720123FB757B688F
:104B1000002B01D1042353E0FB7A023B062B4DD836
:104B200001A252F823F000BF454B0030554B003036
:104B30008D4B00309D4B0030654B0030794B003081
:104B4000AD4B00307A680F21F8681BF0D1F90346AD
:104B5000FB7534E07A681021F8681BF0C9F9034648
:104B6000FB752CE07B683B610023FB75FB6893F8C9
:104B700076203B691A7022E07B683B610023FB755D
:104B8000FB6893F874203B691A7018E07A68062174
:104B9000F8681BF0ADF90346FB7510E07A68072151
:104BA000F8681BF0A5F90346FB7508E07A6809214F
:104BB000F8681BF09DF90346FB7500E000BFFB7D24
:104BC00018461837BD4680BD80B586B000AFF86086
:104BD0000B467A60FB720123FB75FB7A033B0B2BC0
:104BE00074D801A252F823F0194C0030CD4C00309B
:104BF000CD4C0030294C00303F4C0030CD4C0030C3
:104C0000CD4C0030AD4C0030BD4C00308D4C0030F0
:104C1000CD4C00309D4C00307A681121F8681BF0B3
:104C200067F90346FB7556E07B68002B50D00023E4
:104C3000FB757B681A78FB6883F8762048E0FB6890
:104C400093F87630032B17D07B68002B42D00023DB
:104C5000FB757B681A78FB6883F87420FB68032275
:104C600083F87620FB6874331A461421F8681BF029
:104C70003FF90346FB752DE0FB6874331A460821A3
:104C8000F8681BF035F90346FB7523E07A680A21C2
:104C9000F8681BF02DF90346FB751CE07A680B21C0
:104CA000F8681BF025F90346FB7514E07A680C21BF
:104CB000F8681BF01DF90346FB750CE07A680D21BE
:104CC000F8681BF015F90346FB7504E000BF02E02D
:104CD00000BF00E000BFFB7D18461837BD4680BD11
:104CE00080B48BB000AF7860414B3B62414BFB61BD
:104CF000414BBB61414B7B61414B3B61414BFB6095
:104D000000237B6269E0404A7B6A982101FB03F340
:104D100013441B68002B5DD17B6A9B0028333B4406
:104D200053F8082C38497B6A982000FB03F30B44A6
:104D300018331A607B6A9B0028333B4453F80C2CD1
:104D400031497B6A982000FB03F30B441C331A6043
:104D50007B6A9B0028333B4453F8102C2A497B6A1A
:104D6000982000FB03F30B4420331A607B6A9B00FE
:104D700028333B4453F8142C23497B6A982000FBCA
:104D800003F30B443C331A607B6A9B0028333B449B
:104D900053F8182C1C497B6A982000FB03F30B4442
:104DA00040331A607B6A9B0028333B4453F81C2C29
:104DB00015497B6A982000FB03F30B4450331A60BB
:104DC0007B6A982202FB03F30F4A1A447B681A603D
:104DD000002306E07B6A01337B627B6A002B92D062
:104DE000022318462C37BD465DF8047B704700BF90
:104DF0004821002068210020782100208C210020FB
:104E000094210020A0210020C421002080B584B07E
:104E100000AF78600023BB607B682033BB607B6899
:104E20009B69DB7B032B0BD0BB681B6800229A704D
:104E3000BB681B6800221A73BB681B6800225A7388
:104E40007B689B699A68BB685A607B689B691B7B1F
:104E5000DB09DAB2BB685A767B689B69DB7BAA2BDD
:104E600000F0E780AA2B00F32081A82B00F0CF8070
:104E7000A82B00F31A815A2B00F3C080002BC0F23C
:104E800014815A2B00F2118101A252F823F000BFC5
:104E900027500030AB500030AB5000301B5000307A
:104EA0004B500030AB500030AB500030AB500030B6
:104EB000AB500030AB500030AB500030AB50003046
:104EC000AB500030AB500030AB500030AB50003036
:104ED000AB500030AB50003003500030AB500030CE
:104EE000AB5000306F500030AB500030AB50003052
:104EF000AB500030AB500030635000309F5000305A
:104F0000AB500030875000303F500030AB50003085
:104F1000AB500030AB500030AB5000307B50003015
:104F2000AB50003057500030AB500030AB50003029
:104F30000F500030AB50003033500030AB500030D9
:104F4000AB500030AB500030AB50003093500030CD
:104F5000AB500030AB500030AB500030AB500030A5
:104F6000AB500030AB500030AB500030AB50003095
:104F7000AB500030AB500030AB500030AB50003085
:104F8000AB500030AB500030AB500030AB50003075
:104F9000AB500030AB500030AB500030AB50003065
:104FA000AB500030AB500030AB500030AB50003055
:104FB000AB500030AB500030AB500030AB50003045
:104FC000AB500030AB500030AB500030AB50003035
:104FD000AB500030AB500030AB500030AB50003025
:104FE000AB5000306F500030AB500030AB50003051
:104FF000AB500030AB500030635000309E2B2AD0B5
:1050000053E078681BF09FFF0346FB7353E078681A
:105010001BF0D6FF0346FB734DE078681BF059FF89
:105020000346FB7347E078681CF0CCF80346FB733B
:1050300041E078681CF045F80346FB733BE0786874
:105040001CF022FB0346FB7335E078681CF0E0FAA5
:105050000346FB732FE078681CF095F90346FB7359
:1050600029E078681CF006F90346FB7323E07868B2
:105070001CF03DF90346FB731DE0786800F050FF1B
:105080000346FB7317E078681CF037FB0346FB739D
:1050900011E078681CF0CFF80346FB730BE07868EA
:1050A0001CF064FB0346FB7305E078681CF09CFB76
:1050B0000346FB7300BFBB681B689B78002B0DD0B9
:1050C0007B68DB691B7B002B08D17B689B69DB7BE2
:1050D000032B03D07B68DB6901221A73FB7B184624
:1050E0001037BD4680BD00BF80B590B000AFF860FE
:1050F000B9607A607B687B63012387F83B30BB68CB
:105100005B68B3F1FF3F4BD17B6B93F88530002B8D
:1051100022D07B6B5B681B68002B1DD07B6B9B696F
:10512000DB7B282B04D07B6B9B69DB7BA82B13D10B
:1051300000237B62BB681B68BB6200233B627B6B06
:105140009B695B7B87F82C307B6B5B681B6807F186
:1051500020020121786B98477B6B93F89630012BE6
:105160001BD17B6B002283F896207B6BDA697B6B0B
:10517000DB6992689A607B6B18687B6B93F891107F
:105180007B6BDA690D231BF00CF97B6B012283F832
:105190008E207B6B002283F88F2097F83B30BAE09B
:1051A0007B6BDA68BB685B689A4206D37B6BDA6814
:1051B000BB685B68D21A7B6BDA607B6B93F88B30D1
:1051C000012B17D17B6B002283F88B207B6B012294
:1051D00083F886207B6B002283F885207B6B1A681E
:1051E0007B6B93F89130194610461BF0FBF997F84A
:1051F0003B3090E07B6B93F88530002B08D1BB6887
:105200005B680D2B04D1BB681B683B633B6BFB6386
:105210007B6B93F88530002B5CD07B6B5B681B68E5
:10522000002B76D0BB685B687B61BB681B68BB6189
:105230007B6B1B693B617B6B9B695B7B3B777B6B10
:105240009B69DB7B282B04D07B6B9B69DB7BA82BCA
:1052500007D17B6B5B681B6807F110020121786B3B
:1052600098477B6BDB68002B17D07B6B1A69BB6898
:1052700059687B6B9B695B7B786B05331B0103442F
:1052800008331B68B1FBF3F31A447B6B1A61786B2C
:105290001BF0CCFA034687F83B307B6BDB68002BB6
:1052A00037D17B6B002283F885207B6B012283F84A
:1052B0008E207B6BDA697B6BDB6992689A607B6B13
:1052C00018687B6B93F891107B6BDA690D231BF0E8
:1052D00068F81EE0BB685B680D2B1AD1FB6B1B687E
:1052E0000F4A934215D17B6B012283F888207B6B98
:1052F000002283F88E207B6B18687B6B93F89210EA
:105300007B6B9A691F231BF065F87B6B012283F886
:105310008D2097F83B3018464037BD4680BD00BF12
:105320005553425380B58EB000AFF860B9607A60D3
:105330007B683B63002387F83730BB685B68B3F159
:10534000FF3F47D13B6B93F88430002B22D03B6B5F
:105350005B681B68002B1DD03B6B9B69DB7B2A2B9A
:1053600004D03B6B9B69DB7BAA2B13D100237B62B0
:10537000BB681B68BB6200233B623B6B9B695B7B2A
:1053800087F82C303B6B5B681B6807F12002022119
:10539000386B98473B6B93F88D30002B17D13B6BE4
:1053A00093F88630002B12D13B6B93F88730002B9B
:1053B0000DD13B6B18683B6B93F892103B6B9A696D
:1053C0001F231BF007F83B6B012283F88D2097F811
:1053D0003730B5E13B6BDA68BB685B689A4206D34D
:1053E0003B6BDA68BB685B68D21A3B6BDA603B6B7D
:1053F0009B69DB7B552B04D03B6B9B69DB7B152BBF
:105400000BD13B6B5B681B68002B06D03B6B5B686A
:105410001B6800220B21386B98473B6B93F88C304C
:10542000012B1BD13B6B002283F88C203B6B0122AC
:1054300083F887203B6B002283F884203B6B00229B
:1054400083F88D203B6B1A683B6B93F892301946BA
:1054500010461BF0C7F897F8373071E13B6B93F8B3
:105460008430002B5DD0BB685B687B61BB681B68C8
:10547000BB613B6B1B693B613B6B9B695B7B3B7718
:105480003B6B5B681B68002B2DD03B6B9B69DB7B08
:105490002A2B04D03B6B9B69DB7BAA2B07D13B6B90
:1054A0005B681B6807F110020221386B98473B6B61
:1054B000DB68002B17D03B6B1A69BB6859683B6BE4
:1054C0009B695B7B386B05331B01034408331B6806
:1054D000B1FBF3F31A443B6B1A61386B1BF009FA0A
:1054E000034687F837303B6BDB68002B40F02681A2
:1054F0003B6B002283F884203B6BDA693B6BDB69F2
:1055000092689A603B6B18683B6B93F891103B6B09
:10551000DA690D231AF045FF3B6B012283F88E20D8
:105520000CE13B6B93F88830002B00F0DB80BB680C
:105530005B681F2B40F0D6803B6B9B691B68824ADF
:10554000934240F0CF803B6B9B695B7B03F0F003A1
:10555000002B40F0C7803B6B9B699B7B03F0E00313
:10556000002B40F0BF803B6B9B695B7B1A463B6B1B
:1055700093F8903001339A4280F0B4803B6B9B6982
:105580009B7B002B00F0AE803B6B9B699B7B102BC1
:1055900000F2A8803B6B002283F88D203B6B002239
:1055A000DA603B6BDB69694A1A603B6BDB6900229E
:1055B0009A603B6B9A693B6BDB6952685A603B6B44
:1055C000002283F888203B6B9A693B6B9B69926849
:1055D0009A603B6B9B691B7B5BB2002B06DB3B6BD2
:1055E0009B699B68002B01D0012200E000223B6BED
:1055F00083F884203B6B9B691B7B5BB2002B06DA34
:105600003B6B9B699B68002B01D0012200E00022CC
:105610003B6B83F885203B6B93F88530002B0AD0D9
:105620003B6B93F88630002B05D0012387F8373089
:1056300097F8373084E0386BFFF7E8FB034687F8CC
:10564000373097F83730052B28D13B6B93F88430EF
:10565000012B0DD13B6B93F88730002B03D13B6BB3
:10566000012283F88C203B6B002283F8842011E018
:105670003B6B93F88530012B0CD13B6B93F8863054
:10568000002B03D13B6B012283F88B203B6B002264
:1056900083F885203B6B022283F88F203B6B93F8C5
:1056A0008430002B49D13B6B93F88530002B44D1DB
:1056B0003B6B93F88B30002B3FD13B6BDA693B6B34
:1056C000DB6992689A603B6B18683B6B93F89110AA
:1056D0003B6BDA690D231AF064FE3B6B012283F801
:1056E0008E202AE03B6B1A683B6B93F89230194688
:1056F00010461AF077FF3B6B1A683B6B93F89130BA
:10570000194610461AF06EFF3B6B002283F88D207D
:105710003B6B002283F888203B6B012283F88720B3
:105720003B6B012283F886203B6B012283F88F209C
:105730003B6B012283F8892000E000BF97F83730E7
:1057400018463837BD4680BD5553424355534253E2
:1057500080B58CB000AF78600023FB62012387F82E
:105760002B307B6893F89430002B08D07B6893F83B
:1057700094207B685B689B685B799A4202D997F8B2
:105780002B30FDE07B685B689B681B68002B02D1B7
:1057900097F82B30F4E07B685B689B681A687B683D
:1057A00093F8943019466FF060430B44DB001344C8
:1057B000FB6100237B624DE0FB6959687A6A1346FE
:1057C0005B0013449B000B441B78082B3FD1002344
:1057D0003B6222E0FB6959687A6A13465B00134416
:1057E0009B000B445A683B6A1B0113441A787B6880
:1057F00093F893309A420DD1FB6959687A6A13463F
:105800005B0013449B000B445A683B6A1B01134422
:10581000FB620FE03B6A01333B62FB6959687A6ABD
:1058200013465B0013449B000B441B7A1A463B6AE9
:105830009342CFD3FB6959687A6A13465B001344DD
:105840009B000B44DA787B6883F8952008E07B6A3C
:1058500001337B62FB691B781A467B6A9342ABD3A8
:10586000FB6A002B02D197F82B3089E07B68FA6A3B
:105870009A6000237B624CE000233B76FB6A9968C8
:105880007A6A13465B0013445B000B441B797B76FA
:10589000FB6A99687A6A13465B0013445B000B4409
:1058A0001B78BB75FB6A99687A6A13465B001344E0
:1058B0005B000B445B88BB82FB6A99687A6A13467B
:1058C0005B0013445B000B445B78FB75BB7DDB091D
:1058D000DBB2012B06D1BA7D7B6883F891202A4B7D
:1058E000BB6005E0BA7D7B6883F89220274BBB60E4
:1058F0007B68FB607B681B6807F1080207F11401F5
:1059000018461AF0A0FD034687F82B307B6A013356
:105910007B62FB6A1B791A467B6A9342ACD37B6835
:10592000002283F884207B68002283F885207B682E
:10593000002283F887207B68002283F886207B681A
:10594000002283F88C207B68002283F88B207B6800
:10595000012283F888207B680022DA607B680022BD
:1059600083F889207B68002283F88A207B680022E4
:1059700083F88F207B68002283F8962097F82B30DD
:1059800018463037BD4680BDE95000302553003001
:1059900090B599B000AFF860B9607A60012387F8DC
:1059A0005F300023BB65BB6887F857307B68002BEE
:1059B00002D0FB68002B01D10323ADE2FB683B65FD
:1059C00097F85730013B052B00F28F8201A252F865
:1059D00023F000BF115E0030ED590030E95A00306D
:1059E000635B0030EB5B0030855C00303B6D002278
:1059F00083F894203B6D5B681B6807F1100205215A
:105A0000386D9847034687F85F303B69002B02D119
:105A100000233B6106E03B69DBB2013BDAB23B6D40
:105A200083F890203B69002B03D1042387F85F3073
:105A300070E2002387F85E302BE097F85E301B01A0
:105A400060333B44483B1B68002B08D097F85E301E
:105A50001B0160333B444C3B1B68002B03D10123EB
:105A600087F85F3010E097F85E3097F85E20396D68
:105A7000053212010A441B0160333B44503B141DA4
:105A800004330FCB84E80F0097F85E30013387F8BA
:105A90005E303B6D93F8903097F85E209A4203D8C1
:105AA00097F85E30022BC8D93B6D2033BB65BB6DC8
:105AB0001B6870221A70BB6D1B680A22DA71BB6DFD
:105AC0001B6800229A70BB6D1B6800221A73BB6DA5
:105AD0001B6800225A733B6D002283F88D203B6DBA
:105AE000002283F88E2015E27B68FB643B6D5B68C7
:105AF000002B00F0FC81FB6C1A783B6D93F894301E
:105B00009A4200F0F6813B6D93F89430002B05D05B
:105B1000386D1AF0D7FD034687F85F30FB6C1A78B2
:105B20003B6D83F894203B6D002283F89320386D01
:105B3000FFF70EFE034687F85F3097F85F30002BC3
:105B400040F0D9813B6D18683B6D93F892103B6D26
:105B50009A691F231AF03EFC3B6D012283F88D20C9
:105B6000C9E13B6D5B68002B00F0C7817B681B8837
:105B7000A7F84A30B7F84A3087F849303B6D93F8B8
:105B80009520B7F84A301B0A9BB2DBB29A4240F02C
:105B9000B6813B6D93F8933097F849209A4200F014
:105BA000B081386D1AF08EFD034687F85F30386D8E
:105BB000FFF7CEFD034687F85F3097F85F30002B84
:105BC0000DD13B6D18683B6D93F892103B6D9A694F
:105BD0001F231AF0FFFB3B6D012283F88D203B6DE4
:105BE00097F8492083F8932094E13B6D5B68002B84
:105BF00000F089813B6D9B68002B00F084817B68FD
:105C0000FB643B6D93F88630002B19D1FB6C1A783E
:105C10003B6D93F891309A4212D13B6D012283F88B
:105C200086203B6D002283F88E203B6D1A68FB6C4A
:105C30001B78194610461AF0D5FC034687F85F30EA
:105C40003B6D93F88730002B40F05F81FB6C1A7836
:105C50003B6D93F892309A4240F057813B6D0122A0
:105C600083F887203B6D002283F88D203B6D1A68F6
:105C7000FB6C1B78194610461AF0B4FC034687F8F3
:105C80005F3042E13B6D5B68002B00F03C813B6D77
:105C90009B68002B00F037813B6D93F88930012B16
:105CA00000F031817B68FB643B6D93F88630012BFB
:105CB00019D1FB6C1A783B6D93F891309A4212D14E
:105CC0003B6D002283F886203B6D002283F88E20F6
:105CD0003B6D1A68FB6C1B78194610461AF09AFC4B
:105CE000034687F85F303B6D93F88730012B19D15D
:105CF000FB6C1A783B6D93F892309A4212D13B6D4F
:105D0000002283F887203B6D002283F88D203B6DB5
:105D10001A68FB6C1B78194610461AF07BFC034688
:105D200087F85F303B6D93F88F30032B04D03B6DC9
:105D300093F88F30022B2FD13B6D93F88A30012BD3
:105D40002AD03B6D93F88E30012B0DD13B6D012293
:105D500083F896203B6D1A683B6D93F89130194695
:105D600010461AF04DFB13E03B6DDA693B6DDB69C1
:105D700092689A603B6D18683B6D93F891103B6D8B
:105D8000DA690D231AF00DFB3B6D012283F88E209A
:105D90003B6D002283F88F203B6D93F88A30012BF6
:105DA00040F0B5803B6D93F88630002B40F0AF801B
:105DB0003B6D93F88730002B40F0A9803B6D0022AB
:105DC00083F88A203B6D93F88D30012B0DD13B6D0C
:105DD000002283F88D203B6D1A683B6D93F892305A
:105DE000194610461AF00CFB0DE03B6D18683B6D30
:105DF00093F892103B6D9A691F231AF0EBFA3B6DF2
:105E0000012283F88D203B6D002283F88F207EE0F5
:105E10007B687B647B6C1B681B7803F01F03012B82
:105E200077D17B6C1B685B78FE2B02D0FF2B29D0CF
:105E30005AE07B6C1B689A883B6D93F895309BB257
:105E40009A421BD17B6C1B685B88002B16D17B6C44
:105E50001B68DB88012B11D17B6C1B681B785BB244
:105E6000002B0BDA3B6D03F190027B6C5A607B6C6C
:105E70001B68DB881A467B6C9A6035E0052387F83F
:105E80005F3031E07B6C1B689A883B6D93F89530EE
:105E90009BB29A4224D17B6C1B685B88002B1FD17C
:105EA0007B6C1B68DB88002B1AD17B6C1B681B7812
:105EB0005BB2002B14DB3B6D012283F887203B6D26
:105EC000012283F886203B6D012283F888203B6DF8
:105ED000002283F889203B6D012283F88A2002E0AA
:105EE000052387F85F3000BF14E000BF12E000BF59
:105EF00010E000BF0EE000BF0CE000BF0AE000BFF2
:105F000008E000BF06E000BF04E000BF02E000BF01
:105F100000E000BF97F85F3018466437BD4690BD7B
:105F200080B590B000AF786000237B630B2387F8C7
:105F30003330AF4B1B68BB60002387F83B30002336
:105F400087F83A30002387F839307B6820337B6349
:105F50007B689B695B7B87F8383097F8383087F827
:105F6000243000233B620023FB617B685B681B6875
:105F7000002B0AD07B685B681B6807F11C021121AB
:105F800078689847034687F833307B6893F89030F9
:105F900097F838209A4206D97B6B1B6805229A70C5
:105FA000002387F838303B6A002B14D0FB69002BA4
:105FB00011D097F83830FA69796805331B010B4422
:105FC00004331A6097F838303A6A796805331B0150
:105FD0000B4408331A607B689B699B7D1B021AB2D5
:105FE0007B689B69DB7D1BB213431BB23B867B6BDB
:105FF00093F82C30002B07D07B685B69002B01D015
:10600000022302E0032300E0002387F82F307B689F
:106010009B695B7B7A6805331B01134404331B685F
:106020001A067B689B695B7B796805331B010B440F
:1060300004331B681B0203F47F031A437B689B69CC
:106040005B7B796805331B010B4404331B681B0A17
:1060500003F47F431A437B689B695B7B7968053354
:106060001B010B4404331B681B0E1343FB607B684E
:106070009B695B7B7A6805331B01134408331B68FB
:106080001A067B689B695B7B796805331B010B44AF
:1060900008331B681B0203F47F031A437B689B6968
:1060A0005B7B796805331B010B4408331B681B0AB3
:1060B00003F47F431A437B689B695B7B79680533F4
:1060C0001B010B4408331B681B0E13433B617B6BA6
:1060D00093F82C30002B01D0022300E0012387F835
:1060E0002E3097F82F30DB00DBB2FB727B689B69A8
:1060F0005B7B7A6805331B01134404331B681A0663
:106100007B689B695B7B796805331B010B44043317
:106110001B681B0203F47F031A437B689B695B7B4C
:10612000796805331B010B4404331B681B0A03F415
:106130007F431A437B689B695B7B796805331B014E
:106140000B4404331B681B0E13437B6197F82E30FE
:106150001A067B689B695B7B796805331B010B44DE
:1061600008331B6813431A0697F82E3019067B680C
:106170009B695B7B786805331B01034408331B680C
:106180000B431B0203F47F031A4397F82E301906C2
:106190007B689B695B7B786805331B01034408338C
:1061A0001B680B431B0A03F47F431A4397F82E30F6
:1061B00019067B689B695B7B786805331B01034488
:1061C00008331B680B431B0E1343BB6197F82F303A
:1061D000DB000C33FB633B8EFA6B9A4201D93B8E9A
:1061E000FB6307F10803BB62002387F83B3015E02F
:1061F0005088023097F83A305A1C87F83A201A46ED
:10620000BB6A1A447B6B196B97F83B300B441278CE
:106210001A7097F83B30013387F83B3097F83B30E2
:10622000032BE7D907F11403BB62002387F83A3048
:1062300014E097F83A30BA6A1A447B6B196B97F8F6
:106240003B300B4412781A7097F83B30013387F8D3
:106250003B3097F83A30013387F83A3097F83A30C4
:10626000072BE6D97B6B93F82C30002B2AD0002328
:1062700087F83A3020E007F10C03BB6213E097F88F
:1062800039305A1C87F839201A46BB6A1A447B6B8E
:10629000196B97F83B300B4412781A7097F83B3023
:1062A000013387F83B3097F83B30072BE7D997F855
:1062B0003A30013387F83A3097F83A2097F82F3080
:1062C0009A42D8D37B6BFA6B9A607B6B01229A76E9
:1062D0007B6B1A6B7B6BDA607B6B00221A767868BB
:1062E0001AF099FB034687F8333097F83330184695
:1062F0004037BD4680BD00BF80B584B000AF0346C7
:106300003960FB7107F10803184621F010FA0023E9
:10631000FB6018E0284AFB681B0113441B68002B34
:106320000ED0254AFB681B0113440E331B78FA7903
:106330009A4205D1BB68184621F019FA012337E0CB
:10634000FB680133FB60FB68002BE3D00023FB609C
:1063500026E0194AFB681B0113441B68002B1CD163
:10636000154AFB681B0113440E33FA791A70FB6857
:10637000DB00124A1A441049FB681B010B44083326
:106380001A60FB681B010C4A1A443B681A60BB6820
:10639000184621F0ECF900230AE0FB680133FB60AA
:1063A000FB68002BD5D0BB68184621F0E0F902232A
:1063B00018461037BD4680BD5C2200206C220020AC
:1063C00080B584B000AF0346FB710023FB6007F18A
:1063D0000803184621F0ABF92CE01C4AFB681B01AE
:1063E00013441B68002B22D0184AFB681B0113447E
:1063F0000E331B78FA799A4219D1144AFB681B01B3
:10640000134400221A60114AFB681B011344043331
:1064100000221A600D4AFB681B0113440E33002250
:106420001A70BB68184621F0A2F900230AE0FB6845
:106430000133FB60FB68002BCFD0BB68184621F00E
:1064400096F9042318461037BD4680BD5C22002013
:1064500080B584B000AF03463960FB710023FB6058
:1064600007F10803184621F062F91EE0154AFB689F
:106470001B0113441B68002B14D0124AFB681B013C
:1064800013440E331B78FA799A420BD1FB681B0137
:106490000C4A1A443B681A60BB68184621F067F939
:1064A00000230AE0FB680133FB60FB68002BDDD0B2
:1064B000BB68184621F05BF9042318461037BD4627
:1064C00080BD00BF5C22002080B584B000AF786042
:1064D00039600023FB6007F10803184621F027F913
:1064E00016E0114AFB681B0113441B687A689A4244
:1064F0000BD1FB681B010C4A1A443B681A60BB684D
:10650000184621F034F900230AE0FB680133FB60F0
:10651000FB68002BE5D0BB68184621F028F904235E
:1065200018461037BD4680BD5C22002080B584B07F
:1065300000AF03463960FB710023FB6007F10803DD
:10654000184621F0F4F81FE0154AFB681B011344BC
:106550001B68002B15D0124AFB681B0113440E3335
:106560001B78FA799A420CD10D4AFB681B0113443F
:106570001A683B681A60BB68184621F0F8F80023D7
:106580000AE0FB680133FB60FB68002BDCD0BB68D2
:10659000184621F0ECF8042318461037BD4680BD9C
:1065A0005C22002090B587B000AFF8600B467A609F
:1065B000FB7201237B757B68002B01D1042358E01B
:1065C00007F110031946F868FFF77EFF03463B7595
:1065D0003B7D002B01D004234BE00023BB7541E041
:1065E0000023FB7536E0FB7D244A1B0113440C336A
:1065F00019783B695B681868BA7D13465B001344E1
:106600009B0003449B681B79994220D1FB7D1B4A68
:106610001B01134408331C683B695B681968BA7D29
:1066200013465B0013449B000B445B68F97A7A685D
:106630001846A04703463B753B7D052B01D105233A
:1066400017E03B7D002B09D100237B7506E0FB7D25
:106650000133FB75FB7D002BC5D000E000BFBB7D87
:106660000133BB753B695B681B7ABA7D9A42B7D32D
:106670007B7D18461C37BD4690BD00BF5488023054
:1066800090B587B000AF0346B9607A60FB737B6852
:10669000002B06D0BB68002B03D0BB685B68002BC7
:1066A00001D1042370E007F11002FB7B114618466C
:1066B000FFF722FE03467B757B7D002B01D07B7D9F
:1066C00062E03B69BA685A603B691A46FB7B304915
:1066D000184619F056FD03467B757B7D002B0AD0CA
:1066E0003B691B68184619F02FFEFB7B1846FFF725
:1066F00067FE7B7D48E00023BB753AE00023FB7515
:1067000031E03B695B681968BA7D13465B0013444E
:106710009B000B449B681A79FB7D1E491B010B44AF
:106720000C331B789A421BD1FB7D1A4A1B01134480
:106730001C683B695B681968BA7D13465B001344AB
:106740009B00C8183B695B681968BA7D13465B00FB
:1067500013449B000B441A1DFB7B01461846A047BF
:10676000FB7D0133FB75FB7D012BCAD9BB7D01335A
:10677000BB753B695B681B7ABA7D9A42BED33B69A5
:106780001A687B681A607B7D18461C37BD4690BD31
:106790003D1802305488023000B583B00A4A0B48D5
:1067A0000B4B0C49121AD20B5B1ADB0B00218DF834
:1067B00004108DF805208DF8063001A811F068FD51
:1067C00003B05DF804FB00BF0000062000000020BD
:1067D0000000020000000000B0B483B000AF034628
:1067E000FB71FB79012B0CD1484A494B14461D46DD
:1067F0000FCD0FC40FCD0FC495E80F0084E80F0034
:106800007EE0FB79022B0CD1404A424B14461D46D8
:106810000FCD0FC40FCD0FC495E80F0084E80F0013
:106820006EE0FB79032B0CD1384A3B4B14461D46D6
:106830000FCD0FC40FCD0FC495E80F0084E80F00F3
:106840005EE0FB79042B0CD1304A344B14461D46D4
:106850000FCD0FC40FCD0FC495E80F0084E80F00D3
:106860004EE0FB79052B0CD1284A2D4B14461D46D2
:106870000FCD0FC40FCD0FC495E80F0084E80F00B3
:106880003EE0FB79062B0CD1204A264B14461D46D0
:106890000FCD0FC40FCD0FC495E80F0084E80F0093
:1068A0002EE0FB79072B0CD1184A1F4B14461D46CE
:1068B0000FCD0FC40FCD0FC495E80F0084E80F0073
:1068C0001EE0FB79082B0CD1104A184B14461D46CC
:1068D0000FCD0FC40FCD0FC495E80F0084E80F0053
:1068E0000EE0FB79092B0BD1084A114B14461D46CB
:1068F0000FCD0FC40FCD0FC495E80F0084E80F0033
:1069000000BF0C37BD46B0BC704700BFA0230220BB
:10691000AC0D03307C0D0330DC0D03304C0D033027
:10692000E4A00230B4A00230DC230330AC230330F7
:10693000CC2C033080B48DB000AFF860B9607A60C1
:106940003B6000237B623C4B9B7EBB613A4B5A6AA7
:106950007968394B5B68CB1A13441B787B61364BE3
:106960001A6A7968344B5B68CB1A9B0013441B6826
:10697000FB61314B9A6AFB69591CF96113441B781E
:106980003B620023FB624BE00023BB6241E07B6A79
:10699000082B09D1284B9A6AFB69591CF9611344E9
:1069A0001B783B6200237B623B6A03F08003002B71
:1069B00011D0BA68FB6A13443A6C02FB03F31A461F
:1069C000FB681A44BB6A13445B00FA6B13443A68D1
:1069D00092B21A8014E0BB6BB3F1FF3F10D0BA68DB
:1069E000FB6A13443A6C02FB03F31A46FB681A4431
:1069F000BB6A13445B00FA6B1344BA6B92B21A8001
:106A0000BB6A0133BB623B6A5B003B627B6A01335A
:106A10007B62BA6A7B699A42B9DBFB6A0133FB622B
:106A2000FA6ABB699A42AFDB00BF00BF3437BD468C
:106A30005DF8047B704700BFA023022080B584B0BE
:106A400000AF78600B46FB700023FB60FB781846B4
:106A5000FFF7C2FE10E00D4B5A6A7B681B7819469F
:106A60000A4B5B68CB1A13441B781A46FB68134425
:106A7000FB607B6801337B607B681B78002BEAD16D
:106A8000FB6818461037BD4680BD00BFA02302201A
:106A900080B58AB004AFF860B9607A603B600023CB
:106AA0007B612CE07B681B785BB2002B27DB01232A
:106AB0007B6197F824301846FFF78EFE7B681B78C1
:106AC0001A46FB6A0293BB6A01933B6A00933B68D8
:106AD000B968F868FFF72EFF0D4B5A6A7B681B7880
:106AE00019460B4B5B68CB1A13441B783B61FA6861
:106AF0003B691344FB607B697A6813447B607B6865
:106B00001B78002BCED100BF00BF1837BD4680BD1B
:106B1000A023022080B483B000AF786008461146FD
:106B20001A460346FB700B46BB7013467B707B68AE
:106B30001A680B4B1340BA78120202F440721A43DF
:106B4000FB789B0503F480031A437B789B021A436E
:106B50007B681A6000BF0C37BD465DF8047B704748
:106B6000FFF0BFFF80B594B004AF0346FB71002374
:106B7000FB6007F110032E220021184621F078F85F
:106B8000FB79022B06D107F10C032449184616F0B5
:106B9000E5FB08E0FB79032B05D107F10C03204945
:106BA000184616F0DBFB07F10C0304211846FFF72B
:106BB00045FF0346C3F53473002B00DA01335B1045
:106BC000FB87F98F07F10C03029304230193002341
:106BD00000934FF6FF734FF4487212481BF0DEFA31
:106BE0004FF6FF7301931E23009340F23A234FF4B4
:106BF00016724B210B481BF0AEF9002301931A23A8
:106C0000009340F2362340F25A224D2105481BF0F2
:106C1000A2F900BF4037BD4680BD00BF3CCE033067
:106C200054CE0330E423022080B582B000AF054B80
:106C30007B607A680021044821F01AF800BF083709
:106C4000BD4680BD00CA080080FC0A8180B582B0C4
:106C500002AF0C4820F02CF800210A481BF0E2FAA1
:106C60000023009300234FF6FF724FF6FF71054893
:106C700013F0F0F9002103481BF0E3FA00BFBD4612
:106C800080BD00BF0040814080B58EB002AF78600B
:106C900039600E233B7700237B7700237B62002340
:106CA000BB624FF4B463BB857B683B62002126481E
:106CB0001BF0B8FA07F11C031946234813F0F6F944
:106CC0000023032200212048FFF724FF40F2CF23B6
:106CD000009340F2FF43002200211B4813F068FAA2
:106CE0004FF4347300934FF4A0634FF4A0624FF459
:106CF0003471154813F01CFA0E233B7200237B728B
:106D000000233B614FF4B463BB824FF4A063FB826A
:106D10004FF434733B833B68FB6007F1080319466B
:106D2000094813F06FFA08481BF061FA00BF0648E3
:106D30001BF06AFA034603F00103002BF7D000BFF3
:106D400000BF3037BD4680BD0040814080B483B075
:106D500000AF78603960044B01221A7000BF0C3715
:106D6000BD465DF8047B70477642042080B586B04E
:106D700004AF26481BF0A9FCFFF756FF0421244866
:106D8000FFF75CFE0346C3F53473002B00DA0133D2
:106D90005B10FB804FF4FA73BB80F988BA881C4BF8
:106DA000029304230193002300934FF6FF731948C5
:106DB0001BF0F4F903211848FFF740FE0346C3F522
:106DC0003473002B00DA01335B10FB804FF4167331
:106DD000BB80F988BA88104B0293032301930023E8
:106DE00000934FF6FF730B481BF0D8F90B490C4882
:106DF000FFF74AFF0B4B1B689B69084A00210948B3
:106E0000984700BF0837BD4680BD00BF68CE03303D
:106E100070CE0330E423022088CE033000201C8192
:106E200000000081B0FE033080B594B004AF03468B
:106E3000FB71FB79194629481BF047FC0023BB6016
:106E400007F10C032E220021184620F011FF002329
:106E5000FB87FB79002B09D107F10803204918466D
:106E600016F07CFA4FF4FC63FB8708E007F1080397
:106E70001C49184616F072FA4FF47843FB8707F165
:106E8000080304211846FFF7D9FD0346C3F5347300
:106E9000002B00DA01335B10BB874FF4FA737B875A
:106EA000B98F7A8FF88F07F10803029304230193B7
:106EB0000023009303460C481BF070F90B490C4863
:106EC000FFF7E2FE0B4B1B689B69084A002109484B
:106ED000984700BF4037BD4680BD00BFC0CE0330DD
:106EE000D4CE0330FCCE0330E423022000201C81EA
:106EF00000000081B0FE033080B584B002AF0346CD
:106F0000FB71FB79194618481BF0DFFBFB79002B5E
:106F10001BD0FB7907EE903AF8EEE77A9FED137AF3
:106F200067EE877AB1EE007A77EEC77AFDEEE77A00
:106F30004FF6FF7301931A23009317EE903A40F235
:106F40005A224D210A481BF006F80A490A48FFF761
:106F50009BFE0A4B1B689B69064A0021074898471D
:106F600000BF0837BD4680BD0CCF03306666B64013
:106F7000E423022000201C8100000081B0FE0330C9
:106F800080B584B002AF0346FB71FB7919461848FF
:106F90001BF09BFBFB79002B1BD0FB7907EE903A93
:106FA000F8EEE77A9FED137A67EE877AB1EE007A12
:106FB00077EEC77AFDEEE77A4FF6FF7301931A2357
:106FC000009317EE903A40F25A224D210A481AF0E7
:106FD000C2FF0A490A48FFF757FE0A4B1B689B6924
:106FE000064A00210748984700BF0837BD4680BDC4
:106FF00020CF03306666B640E423022000201C81C7
:1070000000000081B0FE033090B58BB004AF786013
:1070100000233B610023BB810023FB7515F0A2FC1C
:10702000624B1B681B686148984738613B69002BBD
:1070300008D05F481BF049FB5E4B5F4AF6215F4872
:10704000FBF73AFF594B1B685B695D4A00215748C3
:1070500098475B4B5B4ADA60594B4FF434729A8025
:10706000574B4FF4A062DA80554B00221A80544BE4
:1070700000225A80524B4FF4B4621A814B4B1B686A
:107080001B694F4A002149489847484B1B681C6AB6
:1070900000234D4A00214548A0474C4B4C4ADA603A
:1070A0004A4B4FF4A0621A60484B4FF434725A6056
:1070B000464B4FF4B4629A60464B02934FF6FF730F
:1070C000019356230093F0234FF49672F0213F482A
:1070D0001AF0BEFF40493E48FFF7D6FD334B1B6810
:1070E0009B693D4A002131489847304B1B68DB695A
:1070F0002E489847034603F00103002B04D100BF3C
:10710000364B1B78002BFBD0344B01221A70274BD7
:107110001B689B68002125489847314B1B6807F185
:107120000C014FF0FF3218460DF01CF83B7BFA7D46
:107130009A420DD0FFF778FD3B7B012B06D03B7BBD
:10714000042B03D03B7B1846FFF70CFD3B7BFB7504
:107150003B7B012B02D1FFF709FEDEE73B7B042BD3
:1071600004D17B7B1846FFF75FFE0FE03B7B022BD1
:1071700004D17B7B1846FFF7BFFECEE73B7B032B9A
:10718000CBD17B7B1846FFF7FBFEC6E7144B1B6891
:1071900018461EF045F9124B00221A6000200DF02F
:1071A00011FA00BF1C37BD4690BD00BFB0FE0330D2
:1071B00038CF0330DCE10330B8CF033058CF033091
:1071C000D4230220524731364D6D0030E423022093
:1071D00000000081FC2C033000201C81764204203A
:1071E000D023022080B584B000AF03460A46FB716D
:1071F0001346BB71094B1B68002B0BD0FB793B730B
:10720000BB797B73054B186807F10C010023002242
:107210000CF0FEFE00BF1037BD4680BDD02302201B
:1072200080B584B002AFFFF711FD002202210520D6
:107230001DF0C0FF0346114A1360104B1B68002B62
:1072400003D10F481BF041FA12E0002301930723FA
:10725000009300234FF480620A490B481EF084FA21
:1072600078607B68012B04D008481BF02EFA00BF21
:10727000FEE700BF0837BD4680BD00BFD023022017
:107280006CCF03308CCF03300970003098CF0330BF
:1072900080B582B000AF78607B68002B02D14FF0E0
:1072A000FF3312E04FF0FF3178680CF0FDFF03462A
:1072B000012B02D04FF0FF3307E0064B1B68002B79
:1072C00002D0044B1B689847002318460837BD4678
:1072D00080BD00BF1025022080B582B000AF78606D
:1072E0007B68002B02D14FF0FF3313E00023002214
:1072F000002178680CF08CFE0346012B02D04FF081
:10730000FF3307E0054B5B68002B02D0034B5B6843
:107310009847002318460837BD4680BD1025022037
:1073200080B598B000AF7860174A07F10C0311469A
:107330004C22184620F074FCBB6A7A6802FB03F307
:1073400003F17473BB650023FB6513E00023BB608E
:10735000FA6DBB6D134407F108010422184620F0B2
:10736000FFFEBB68B3F1FF3F01D0002307E0FB6DD8
:107370000433FB65FB6DB3F5805FE7DB0123184643
:107380006037BD4680BD00BFC8D0033080B588B02F
:1073900000AFF860B9607A603B60FB68DB69BA688F
:1073A00003FB02F27B68134403F174737B610023D7
:1073B000BB6114E07A69BB69D0183A68BB691344B1
:1073C0001946FB689B691A4620F0F2FEF861FB69DA
:1073D000002B09D1FB689B69BA691344BB61BA6988
:1073E000BB6A9A42E6D300E000BFFB69012B02D1E1
:1073F0006FF053030AE0FB69002B02D06FF0040327
:1074000004E0B96803481AF08BFF002318462037C0
:10741000BD4680BDF423022080B584B000AF786003
:1074200039600023FB607B68DB693A6802FB03F389
:1074300003F17473BB6039681B481AF038FF0346C8
:10744000002B01D000232BE03868FFF769FF0346CB
:1074500083F00103DBB2002B11D0144B9B68002B8F
:1074600002D0124B9B689847B86820F091FEF860F4
